:020000040000FA
:10000000B87400200D030000150300001703000062
:10001000190300001B0300001D0300000000000086
:10002000000000000000000000000000010D0000C2
:100030002103000000000000910C0000250D0000CD
:1000400011080000ED0800002B0300002D03000044
:100050002F030000310300003303000035030000CC
:1000600037030000390300003B0300003D0300009C
:100070003F0300004103000043030000450300006C
:1000800047030000490300004B0300004D0300003C
:100090004F0300005103000053030000550300000C
:1000A00057030000590300005B0300005D030000DC
:1000B0005F03000061030000A10900006503000068
:1000C00067030000690300006B0300006D0300007C
:1000D0006F0300007103000073030000750300004C
:1000E0007703000079030000000000007B0300009C
:1000F0007D0300007F0300008103000083030000F4
:100100008503000087030000890300008B030000C3
:1001100000000000000000008D0300008F030000BD
:100120009103000093030000950300009703000073
:10013000990300009B0300009D0300009F03000043
:1001400000000000000000000000000000000000AF
:10015000A1030000A3030000A5030000A703000003
:10016000000000000000000000000000000000008F
:10017000000000000000000000000000000000007F
:10018000000000000000000000000000000000006F
:10019000000000000000000000000000000000005F
:1001A000000000000000000000000000000000004F
:1001B000A9030000AB030000AD030000AF03000083
:1001C000B1030000B3030000B5030000B703000053
:1001D000B9030000BB030000BD030000BF03000023
:1001E000C1030000C3030000C503000000000000BD
:1001F00000000000C7030000C9030000CB0300009B
:10020000CD030000CF03000000000000000000004C
:10021000D1030000D3030000D5030000D703000082
:10022000D9030000DB030000DD030000DF03000052
:10023000E1030000E3030000E5030000E703000022
:10024000E9030000EB030000ED030000EF030000F2
:10025000F1030000F3030000F5030000F7030000C2
:10026000F9030000FB030000FD03000000F002F8AA
:1002700000F03CF80AA090E8000C82448344AAF104
:100280000107DA4501D100F031F8AFF2090EBAE802
:100290000F0013F0010F18BFFB1A43F001031847BA
:1002A000902D0000B02D0000103A24BF78C878C10E
:1002B000FAD8520724BF30C830C144BF04680C606C
:1002C000704700000023002400250026103A28BFB4
:1002D00078C1FBD8520728BF30C148BF0B607047B8
:1002E0001FB502F095FE1FBD10B510BD00F05BF903
:1002F0001146FFF7F5FF00F065FD00F079F903B452
:10030000FFF7F2FF03BC00F081F900003F4880478F
:100310003F480047FEE7FEE7FEE7FEE7FEE7FEE7B1
:10032000FEE7FEE7FEE7FEE7FEE7FEE7FEE7FEE7A5
:10033000FEE7FEE7FEE7FEE7FEE7FEE7FEE7FEE795
:10034000FEE7FEE7FEE7FEE7FEE7FEE7FEE7FEE785
:10035000FEE7FEE7FEE7FEE7FEE7FEE7FEE7FEE775
:10036000FEE7FEE7FEE7FEE7FEE7FEE7FEE7FEE765
:10037000FEE7FEE7FEE7FEE7FEE7FEE7FEE7FEE755
:10038000FEE7FEE7FEE7FEE7FEE7FEE7FEE7FEE745
:10039000FEE7FEE7FEE7FEE7FEE7FEE7FEE7FEE735
:1003A000FEE7FEE7FEE7FEE7FEE7FEE7FEE7FEE725
:1003B000FEE7FEE7FEE7FEE7FEE7FEE7FEE7FEE715
:1003C000FEE7FEE7FEE7FEE7FEE7FEE7FEE7FEE705
:1003D000FEE7FEE7FEE7FEE7FEE7FEE7FEE7FEE7F5
:1003E000FEE7FEE7FEE7FEE7FEE7FEE7FEE7FEE7E5
:1003F000FEE7FEE7FEE7FEE7FEE7FEE7FEE70000BA
:1004000004480549034A054B70470000550D00009C
:100410006D020000B8720020B8740020B87200208D
:10042000032A40F2308010F0030C00F0158011F820
:10043000013BBCF1020F624498BF11F801CB00F8F8
:10044000013B38BF11F8013BA2F1040298BF00F84C
:1004500001CB38BF00F8013B11F0030300F04A80E4
:10046000083AC0F0088051F8043B083A51F804CB30
:10047000A0E80810F5E7121D5CBF51F8043B40F8F6
:10048000043BAFF30080D20724BF11F8013B11F801
:1004900001CB48BF11F8012B24BF00F8013B00F845
:1004A00001CB48BF00F8012B70474FF00002042930
:1004B000C0F0128010F0030C00F05080CCF1040C5E
:1004C000BCF1020F18BF00F8012BA8BF20F8022BC7
:1004D000A1EB0C0100F042B85FEAC17C24BF00F838
:1004E000012B00F8012B48BF00F8012B7047704723
:1004F0007047704710B5203AC0F00B80B1E8185033
:10050000A0E81850B1E81850A0E81850203ABFF4FD
:10051000F5AF5FEA027C24BFB1E81850A0E818509C
:1005200044BF18C918C0BDE810405FEA827C24BFF0
:1005300051F8043B40F8043B08BF7047D20728BF7E
:1005400031F8023B48BF11F8012B28BF20F8023BCD
:1005500048BF00F8012B70474FF0000200B513466A
:1005600094469646203922BFA0E80C50A0E80C50D3
:10057000B1F12001BFF4F7AF090728BFA0E80C5084
:1005800048BF0CC05DF804EB890028BF40F8042B7D
:1005900008BF704748BF20F8022B11F0804F18BFEA
:1005A00000F8012B7047754600F02CF8AE460500A8
:1005B0006946534620F00700854618B020B5FFF77E
:1005C0001FFFBDE820404FF000064FF000074FF03E
:1005D00000084FF0000BAC46ACE8C009ACE8C0091D
:1005E000ACE8C009ACE8C00921F007018D467047AE
:1005F00010B50446AFF300802046BDE81040FFF779
:100600007EBE000000487047080000200149182005
:10061000ABBEFEE7260002007047000045F2FC3446
:1006200045F2FC3544F2FC3647F2482740F26808B0
:1006300040F26C0940F2700AC4F20204C4F20005F0
:10064000C4F20006C2F20007C2F20008C2F20009BA
:100650004FF0000BC2F2000A26E000BF206840F213
:10066000780820F0040020602068C2F2000820F022
:100670000800206020684FF0FF3140F00200206049
:10068000D8F8000001F0E0FE40F27401D8F8000054
:10069000C2F2000100220A7000210022002301F0B2
:1006A0004FFCD8464FF0000B38684FF0FF3101F097
:1006B000CBFED8F8000001F03BFA99F8000078BBB7
:1006C00040F27400C2F2000000783168002801F0A6
:1006D00010004BD0C3460028C0D03068800644BF0D
:1006E00028685FEA4060B9D5206840F004002060C7
:1006F000206820F008002060206840F002002060A0
:100700003068C006E9D4A9E7206840F008002060FE
:10071000206820F004002060206840F00200206083
:100720003068000706D53068400744BF28685FEA94
:100730000060E9D420684FF0FF3120F00400206011
:10074000206820F008002060206840F0020020604F
:10075000DAF8000001F078FEDAF80000002100224B
:10076000002389F800B001F0EBFB9DE7F8B940F2F7
:100770007C00C2F2000080F800B040F28400C2F2B7
:10078000000080F800B000BF3068C00633D428688D
:10079000000630D5206840F008002060206820F076
:1007A00004002060206840F002002060ECE7306820
:1007B00000073FF579AF40F27C00C2F2000080F8FC
:1007C00000B040F28400C2F2000080F800B000BF28
:1007D000306800070FD4286840060CD5206840F028
:1007E00004002060206820F008002060206840F0AD
:1007F00002002060ECE7206820F004002060206800
:1008000020F008002060206840F0020020604BE7E4
:1008100070B582B044F2FC340020C4F200040190B0
:100820002068000617D440F2840540F27406C2F234
:100830000005C2F2000628783178084307D047F255
:100840005020C2F20000006801A901F09BFC0020CA
:100850002870307038E02068800604D440F26C00C4
:10086000C2F2000006E02068400713D440F2740092
:10087000C2F200000121017040F27C00C2F20000CF
:100880000021017047F24820C2F20000006840F2E7
:10089000840213E02068C00644BF20685FEA00704D
:1008A00012D440F27C00C2F200000021017047F235
:1008B0004820C2F2000040F284020068C2F2000246
:1008C000117001A901F05EFCFC202062206A0198F1
:1008D00050B14EF60450CEF200004FF0805101604E
:1008E000BFF34F8FBFF36F8F02B070BD10B582B0F2
:1008F00040F26C00C2F20000007845F2FC34C4F211
:10090000000400210191C8BB40F27400C2F2000053
:10091000007898BB40F28C00C2F20000007868BBFF
:1009200040F28D00C2F20000007838BB20688006DB
:1009300004D440F27C00C2F2000006E02068C00748
:1009400006D140F28400C2F200000121017006E0ED
:100950002068C00644BF20685FEA00700ED447F2EA
:100960006020C2F20000006801A901F00BFC40F217
:100970006800C2F20000006802F088FAF3202062EA
:10098000206A019850B14EF60450CEF200004FF0AC
:1009900080510160BFF34F8FBFF36F8F02B010BD66
:1009A00080B582B047F25020C2F2000000210068FA
:1009B000019101A901F0E6FB45F21C40C4F20200DE
:1009C000112101600068019850B14EF60450CEF23A
:1009D00000004FF080510160BFF34F8FBFF36F8F66
:1009E00002B080BD45F2FC3445F2FC3544F2FC36E1
:1009F00047F2502744F2F028C4F20204C4F2000582
:100A0000C4F20006C2F20007C0F2180838684FF0BE
:100A1000FF3101F019FD30680006F7D4206820F09E
:100A200004002060206820F008002060206840F06A
:100A300002002060404600BF2168013841F00801F3
:100A40002160216821F004012160216841F0020148
:100A50002160F1D10CE0206820F0040020602068C3
:100A600020F008002060206840F00200206000BFF5
:100A70002868C007CAD028688006C7D528688007BC
:100A800044BF28685FEAC060C0D53068400744BFF3
:100A900030685FEA8060B9D53068000744BF3068CD
:100AA0005FEAC060B2D5D6E745F2FC3445F2FC35CA
:100AB00044F2FC3647F2602840F27C0B40F2840797
:100AC00040F28009C4F20204C4F20005C4F2000638
:100AD000C2F20008C2F2000BC2F200074FF0000A97
:100AE000C2F2000922E087F800A0206840F2880ADC
:100AF00020F0040020602068C2F2000A20F0080004
:100B0000206020684FF0FF3140F002002060DAF8EA
:100B1000000001F099FCDAF800004FF0000A87F8B5
:100B200000A000210022002301F00AFAD8F80000FA
:100B30004FF0FF3101F088FC30684006F6D59BF895
:100B40000000A8BB38782968002801F010015DD0AA
:100B50000029C8D02868800644BF30685FEAC060BA
:100B6000C1D530688006BED52868400644BF3068CD
:100B70005FEA4060B9D5206840F00400206020683A
:100B800020F008002060206840F002002060286803
:100B9000C006DFD4A7E700BF206840F0080020604F
:100BA000206820F004002060206840F002002060EF
:100BB0002868800711D52868C0070ED03068000764
:100BC00044BF30685FEA407007D52868000644BF1C
:100BD00030685FEA406002D5DEE78BF800A020684D
:100BE0004FF0FF3120F004002060206820F0080062
:100BF0002060206840F002002060D9F8000001F079
:100C000023FCD9F800008BF800A08AE7286881B19E
:100C100080073FF58BAF23E0206840F0080020609C
:100C2000206820F004002060206840F0020020606E
:100C30002868C0061ED42868000644BF30685FEAF2
:100C4000406017D5E8E700BF206840F0040020604E
:100C5000206820F008002060206840F0020020603A
:100C60002868800706D42868400644BF30685FEAD9
:100C70004060E9D4206820F004002060206820F063
:100C800008002060206840F0020020604EE700006D
:100C9000EFF30980BFF36F8F154B1A681EF0100F2A
:100CA00008BF20ED108A20E9F04F10602DE90900FF
:100CB0004FF00A0080F31188BFF34F8FBFF36F8F9F
:100CC00001F006F84FF0000080F31188BDE809003C
:100CD00019680868B0E8F04F1EF0100F08BFB0ECBC
:100CE000108A80F30988BFF36F8F704700BF00BF81
:100CF000980000200000000000000000000000003C
:100D0000074B19680868B0E8F04F80F30988BFF313
:100D10006F8F4FF0000080F31188704700BF00BF55
:100D20009800002080B54FF00A0080F31188BFF3CF
:100D30006F8FBFF34F8F01F0CDFD30B14EF60450F1
:100D4000CEF200004FF080510160002080F3118846
:100D500080BD00004EF68852CEF2000213684EF2BB
:100D6000600043F47003136042F61002C4F20F00F7
:100D7000C0F28072026143F6D122C0F28E7202602C
:100D800040F64252C0F29E1202F50053036040F654
:100D9000000340F2425CC0F28013C0F2DE1C03F597
:100DA000005101610CF5006102600361016000BF48
:100DB00050F8101C4906FBD54FF0C071C0F800C0B8
:100DC0000161704782B04EF20861C4F20F010868F9
:100DD00044F21C4340F0010044F24B320860C4F27C
:100DE0000003C4F64F42FC250020C3F80421C3F8D9
:100DF0000851C3F80C01C3F8100143F81C0C5860EB
:100E0000C3F8F450C3F8005143F8200C1D68F324D4
:100E100045F0FC051D6053F80C5C43F80C5C1D6844
:100E200045F0FC051D6053F8185C43F8185C53F856
:100E3000145C43F8145C53F8105C43F8105C1D68B4
:100E400045F0FC051D6053F80C5C45F0FC0543F8CB
:100E50000C5C4EF20013CEF2000301251D600D68FC
:100E600045F002050D6045F21C45C4F20005C5F8C9
:100E70000421C5F80841C5F80C01C5F8100145F872
:100E80001C0C6860C5F8F440C5F8004145F8200C1A
:100E90002C6844F033042C6055F80C4C45F80C4C8D
:100EA0002C6844F033042C6055F8184C45F8184C65
:100EB00055F8144C45F8144C55F8104C45F8104CA6
:100EC0002C6844F033042C6055F80C4C44F0330487
:100ED00045F80C4C02251D600D6845F020050D609D
:100EE00045F20441C4F20201C1F81C211F220E2563
:100EF000C1F82021C1F82401C1F8280141F8045C9F
:100F00001125C861C1F80C51C1F8182141F8080C2D
:100F10008D61C868032240F01100C860086840F085
:100F200011000860886820F0110088604FF0804050
:100F300018600120002162B600F0BCFF47F21C24BB
:100F4000C2F20004206020B100210022002300F042
:100F5000F7FF01200021032200F0ACFF47F25021EF
:100F6000C2F20001086020B100210022002300F03D
:100F7000E7FF01200021032200F09CFF47F24821F7
:100F8000C2F20001086020B100210022002300F01D
:100F9000D7FF01200021032200F08CFF47F26021DF
:100FA000C2F20001086020B100210022002300F0FD
:100FB000C7FF0120012500F069FF40F27001C2F275
:100FC00000010860012000F061FF40F27801C2F2E8
:100FD00000010860012000F059FF40F28001C2F2D8
:100FE00000010860012000F051FF216840F28802F2
:100FF000C2F20002106049B30320009040F6E510F1
:101000000024C0F2000012A1FA220023019401F092
:101010004BFB0220009040F21D60C0F200000DA1C9
:10102000FA220023019401F03FFB40F2680440F6ED
:10103000A920C2F20004C0F2000008A1FA22002395
:101040000095019401F030FB00F024FDFEE700BFA5
:101050004A616D0044726976657200005061737375
:10106000656E676572000000F0B581B00D4647F20D
:10107000A82140F29806C2F20001C2F200060F68F1
:1010800031680446081D00F019FB10B1601C0FD038
:1010900027E0306847F2F012C06AC2F20002012174
:1010A000136801FA00F023EA00001060601C18D1F8
:1010B000BDB147F28020C2F2000041683268916001
:1010C0008A683368DA6032688B6804325A60326842
:1010D00004328A603168486101680131016001B001
:1010E000F0BD3068E41944600BD340F2A400C2F2B2
:1010F000000000683168043101B0BDE8F04000F044
:1011000005BB40F2A000C2F2000000683168043163
:1011100000F0FCFA47F25820C2F2000001688C424D
:1011200038BF046001B0F0BD47F2E41540F2AC0AEC
:101130004EF6045847F2942747F2E016C2F2000533
:10114000C2F2000ACEF200084FF08059C2F2000746
:10115000C2F2000615E000BF00F00EFBF868C4689C
:10116000201D00F0ABFA3068013830602868013883
:10117000286000F025FB206B00F03AFB204600F0D1
:1011800037FB28680028E7D1DAF800000228F8D3F6
:10119000C8F80090BFF34F8FBFF36F8FF1E70000E7
:1011A0002DE9F04182B0846C0190E4B1A16BE06B59
:1011B000814222D2A16B814229D294F94570D4F8A0
:1011C0003880226CFEB222B3606801A9FFF728F9CB
:1011D000216CD4E90102002508446060904224BFDC
:1011E000206860601DE04FF00A0080F31188BFF3B3
:1011F0006F8FBFF34F8F00BFFEE74FF00A0080F301
:101200001188BFF36F8FBFF34F8F00BFFEE700253C
:1012100028E02068002520B9A06801F039FCA5600D
:10122000054608F10100FF2EA0630ED000F058FA29
:10123000B84217D97F2E12D14FF00A0080F31188DF
:10124000BFF36F8FBFF34F8FFEE754F8240F48B101
:10125000204601F0E1FC002818BF012502E0701CC7
:1012600084F84500284602B0BDE8F08108480068CF
:10127000006880F308884FF0000080F3148862B69D
:1012800061B6BFF34F8FBFF36F8F00DF00BF000069
:1012900008ED00E02DE9F04381B040F29C08C2F275
:1012A0000008D8F800200546D2680E46D46804F13C
:1012B0000409484600F002FA94F8240041070CD4CF
:1012C00000F0FE0084F824001FE000BF711B814283
:1012D00013D3216A204688473D46A06924614719F7
:1012E000B7426760F2D9B54201D9AF42F1D2D8F81E
:1012F0000000494600F00AFA07E040F2A800C2F2F6
:1013000000000068494600F001FA216A204601B059
:10131000BDE8F0430847000081B00020009040F293
:101320000400C2F2000000684FF00A0181F3118846
:10133000BFF36F8FBFF34F8F013001D0FEE700BFC7
:1013400000980028FCD001B07047000084B040F243
:101350009C0440F2900940F2A80A47F2AC2BC2F27A
:101360000004C2F20009C2F2000AC2F2000B0DF141
:10137000040800BF2068076817B1C068066800E06D
:10138000002600F09DFC01F09FFAD9F800100546F8
:10139000884209D22068016891B1C0684FF0FF31DE
:1013A0000068FFF777FFF5E7C9F8005097B1AE4244
:1013B00010D801F0A9FC30462946FFF76BFF2DE05D
:1013C000DAF80010CAF800002160C9F8005001F0F6
:1013D0009BFC23E00FB1002205E0DAF80000006872
:1013E000B0FA80F04209DBF80000711B00F05AFAF5
:1013F00001F08AFC90B94EF60450CEF200004FF096
:1014000080510160BFF34F8FBFF36F8F06E000F094
:10141000FE0085F82400296A28468847DBF800008A
:101420004146002200F03CFF0028A3D0019800288C
:10143000F4D4039D686910B1281D00F03FF901F054
:1014400043FAD9F80010064688420ED22068016897
:1014500031B1C0684FF0FF310068FFF71BFFF5E7BF
:10146000DAF80010CAF8000021600198C9F800609D
:1014700001380828D2D8DFE800F005051A216205F6
:10148000051A210095F82400029AA96940F0010389
:1014900085F824308B182F4647F8043FB3422D615E
:1014A00021D9964201D2934226D2206820E095F8B5
:1014B000240000F0FE0085F82400AFE795F8240032
:1014C00040F00101029885F824100028A86150D04E
:1014D0003044294641F8040FB0422D6137D92068C5
:1014E00000F014F99AE7B21A8A4205D2DAF800003D
:1014F000394600F00BF991E742077FF588AF029873
:10150000D946C346D046084407E000BF301A884297
:1015100022D3296A284688475046A9692D6101EBE4
:10152000000AB245C5F804A0F0D9864201D282452E
:10153000EFD22068394600F0E9F8C24612E095F88B
:1015400024008107B5D4284600F052F966E7DAF89E
:10155000000000F0DBF861E7D8F800003946C24629
:1015600000F0D4F8D846CB4640F29009C2F2000908
:1015700051E74FF00A0080F31188BFF36F8FBFF37C
:101580004F8F00BFFEE70000F0B581B0044600F0C9
:10159000F3F894F94560012E18DB04F1240503E00B
:1015A00070B2013E012811DDA06C28B12046FFF782
:1015B000F7FD40B9F4E700BF286838B1284601F0CC
:1015C0002BFB0028ECD000F09FF9E9E7FF2684F818
:1015D000456000F0F5F800F0CFF894F94470012F61
:1015E0000FDB04F1100500BF286850B1284601F058
:1015F00013FB002818BF00F087F978B2013F0128DB
:10160000F2DC84F8446001B0BDE8F04000F0D8B8E6
:1016100010B520F0070101F10804844298BF0024AE
:10162000410708BF044600F04BFB40F29400C2F2B1
:101630000000016891B1DCB147F25421C2F200010F
:101640000B681A1946F6F774A2424FF0000410D83E
:101650009A420ED900680A60C4180AE040F2D81114
:10166000C2F20001073121F007010160002CE3D133
:10167000002401F049FB204610BD000040F2980014
:10168000C2F20000016819B101684A6C01324A6473
:1016900000687047034641F21930C0F200004FF075
:1016A000807C21F0010103E903106FF0020043F890
:1016B000240CA3F1440043F8202C7047D0E90132F8
:1016C00001699A60D1F804C082688445536008BFFC
:1016D0004A600022026108680138086008687047A3
:1016E00047F2E010C2F20000006870474FF0FF318F
:1016F000024642F8081F00214260C0E9032201604F
:1017000070470000002101617047000080B5D1F8EA
:1017100000C01CF1010207D000F108039E465B687F
:101720001A686245FAD901E0D0F810E0DEF804202A
:1017300008614A609160C1F808E0CEF804100168C1
:101740000131016080BD0000D0F800C0436808612D
:101750009A684B608A609A68996051600CF1010147
:1017600001607047DFF80C00016841F4700101600E
:101770007047000088ED00E04FF00A0080F3118808
:10178000BFF36F8FBFF34F8F40F20400C2F200002F
:1017900001684A1C026001B170474EF60450CEF257
:1017A00000000068000608BF70474FF00A0080F391
:1017B0001188BFF36F8FBFF34F8F00BFFEE70000AC
:1017C00040F20400C2F20000016839B10139016041
:1017D00018BF7047002080F3118870474FF00A004F
:1017E00080F31188BFF36F8FBFF34F8FFEE70000C8
:1017F000002808BF70474FF00A0080F31188BFF33C
:101800006F8FBFF34F8F00BFFEE700004EF2100056
:10181000CEF2000000210160816040F20001C2F2BE
:101820000001096844F6D352C1F26202A1FB021220
:101830004FF0FF3101EB92114160072101607047C9
:10184000EFF30580102814D34EF2F031CEF20001F0
:10185000405C47F2D811C2F200010978884208D2F0
:101860004FF00A0080F31188BFF36F8FBFF34F8FE3
:10187000FEE74EF60C50CEF2000047F2DC11006895
:10188000C2F20001096800F4E060884298BF704726
:101890004FF00A0080F31188BFF36F8FBFF34F8FB3
:1018A000FEE7000070B515460E460446FFF764FFDC
:1018B00094F84400FF2804BF002084F8440094F802
:1018C0004500FF2804BF002084F84500FFF778FF9B
:1018D000A06B28B904F1240031462A4600F038F8FC
:1018E0002046BDE87040FFF74FBE000047F25C2184
:1018F000C2F200010968016047F2A821C2F20001AA
:10190000096841607047000047F2B420C2F200004D
:10191000012101607047000010B570B10C4640F223
:101920009801C2F2000109681831FFF7EFFE204666
:101930000121BDE81040FFF797BB4FF00A0080F38C
:101940001188BFF36F8FBFF34F8F00BFFEE700001A
:1019500010B560B340F2980CC2F2000C0346D0F808
:1019600004E0DCF80000002AC0F81CE0DEF8080003
:10197000DCF800402062DCF80000DEF8084000F1EE
:1019800018006060DCF8000000F11800CEF80800D4
:10199000DCF800008362186818BF4FF0FF31441C68
:1019A000084611461C60BDE81040FFF75DBB4FF0D4
:1019B0000A0080F31188BFF36F8FBFF34F8F00BF12
:1019C000FEE7000070B500284FD0426C0446002AA4
:1019D0004CD0236CE06A8B4288BF1946884244D0C1
:1019E000012A42D140F29802C2F200021268A242D9
:1019F00045D0A269E162002A5CBFC1F10F01A1617B
:101A000040F2AC06616900EB8000C2F2000606EB12
:101A10008000814218BF70BD251D2846FFF74EFE8D
:101A2000002847F2F010C2F2000007D1E16A01225B
:101A3000036802FA01F123EA01010160E16A01226F
:101A400003688A401A43026001EB810006EB8001C3
:101A50004A6861619368A260E360936895605D6025
:101A600056F82010013146F8201070BD4FF00A00E2
:101A700080F31188BFF36F8FBFF34F8FFEE74FF0F6
:101A80000A0080F31188BFF36F8FBFF34F8F00BF41
:101A9000FEE7000080B582B0002047F24C2C009099
:101AA00041F22910C2F2000CC0F200001EA18222F5
:101AB0000023CDF804C000F0F7FD012808BF01F0B5
:101AC00055FA411C25D001281CD14FF00A0080F3A3
:101AD0001188BFF36F8FBFF34F8F47F25820C2F2C8
:101AE00000004FF0FF31016047F27C20C2F200009D
:101AF0000121016047F2A820C2F20000002101602C
:101B000000F02AF943F22C00C0F20000006802B095
:101B100080BD4FF00A0080F31188BFF36F8FBFF3D1
:101B20004F8F00BFFEE700BF49444C450000000056
:101B3000F0B581B00446FFF71FFE40F29807002C75
:101B4000C2F2000708BF3C68261D3046FFF7B6FD0D
:101B5000A0B9E06A40F2AC0200EB8001C2F20002E0
:101B600052F8211051B947F2F012C2F200020121DD
:101B7000136801FA00F023EA00001060A06A18B1AF
:101B800004F11800FFF79AFD47F28025C2F2000524
:101B900028463146FFF7D8FD94F84C00012804BFD1
:101BA000002084F84C00FFF70BFE47F27C26C2F2BF
:101BB00000063068A8B1FFF7DFFD40F2A000C2F2D6
:101BC00000000168096819B10068C068006801E098
:101BD0004FF0FF3047F25821C2F200010860FFF7D2
:101BE000EFFD3868844201D001B0F0BD306870B1BB
:101BF00047F2E810C2F200000068A0B14FF00A00FE
:101C000080F31188BFF36F8FBFF34F8FFEE747F26A
:101C1000E011C2F2000128680968884210D1002052
:101C2000386001B0F0BD4EF60450CEF200004FF027
:101C300080510160BFF34F8FBFF36F8F01B0F0BDD4
:101C400047F2E810C2F20000006838B147F2B42051
:101C5000C2F200000121016001B0F0BD47F2B420E2
:101C6000C2F200000021016047F2F010C2F2000051
:101C70000068B0FA80F0C0B2C0F11F0040F2AC01C1
:101C800000EB8000C2F2000151F820206AB101EBA4
:101C9000800050F8041F4968021D9142016001D183
:101CA000496801600068C068BAE74FF00A0080F335
:101CB0001188BFF36F8FBFF34F8F00BFFEE70000A7
:101CC00047F2E810C2F2000001680131016070477C
:101CD00047F2E810C2F20000006830B147F2B420C9
:101CE000C2F2000001210160704747F2B420C2F245
:101CF00000000021016047F2F010C2F2000000680D
:101D0000B0FA80F0C0B2C0F11F0040F2AC0100EBAD
:101D10008000C2F2000151F8202092B101EB800056
:101D200050F8041F4968021D9142016001D14968C1
:101D30000160006840F29801C068C2F200010860CA
:101D400070474FF00A0080F31188BFF36F8FBFF325
:101D50004F8F00BFFEE70000B0B584B04EF20040E8
:101D6000CEF200004CF27021C4F20F11D0F800291D
:101D70004B1C9A4209D14FF00A0080F31188BFF33F
:101D80006F8FBFF34F8F00BFFEE7D0F800298A4264
:101D900009D14FF00A0080F31188BFF36F8FBFF3B2
:101DA0004F8F00BFFEE7017847F2D8120291FF2162
:101DB00001700178C2F200028DF807109DF807103B
:101DC00001F00A01117047F2DC11C2F20001072292
:101DD0000A609DF90720B2F1FF3F0CDC062200BF2C
:101DE0000A609DF80730013A5B008DF807309DF9D5
:101DF0000730002BF4D40A68042A3DD14FF4E06385
:101E000003EA02220A6002990170D0F8201941F019
:101E1000FF51C0F82019D0F8201941F06041C0F8F6
:101E20002019FFF7F3FC40F20404C2F2000400257D
:101E30002560FFF797FC4EF63470CEF20000016883
:101E400041F040410160FFF711FAFFF741FF0395B0
:101E500020684FF00A0181F31188BFF36F8FBFF341
:101E60004F8F013002D000BFFEE700BF039800286B
:101E7000FCD0002004B0B0BD4FF00A0080F3118800
:101E8000BFF36F8FBFF34F8FFEE70000B0B50120A7
:101E900000210022002500F00DF8044640B1204644
:101EA0000021002200232560C4E9025500F048F813
:101EB0002046B0BDF0B581B0C0B306460F46A0FBCA
:101EC000010199BB07FB06F010F14D0F2ED84C30E5
:101ED000FFF79EFB4FF0000428B30546002F18BF04
:101EE0004C302860C5E90F67FFF746FC2868D5E944
:101EF0000F12AC6302FB0103013901FB0201C5E9CA
:101F00000103FF20E96085F8440085F8450005F1EC
:101F10001000FFF7EBFB05F12400FFF7E7FBFFF7ED
:101F20004FFCAC642C46204601B0F0BD4FF00A00D7
:101F300080F31188BFF36F8FBFF34F8FFEE7000070
:101F40002DE9F04F83B00292B8B11D460E4604460B
:101F5000E9B1022D03D1E06B012840F0A88000F028
:101F60009FFC00BB0298F0B14FF00A0080F311888B
:101F7000BFF36F8FBFF34F8FFEE74FF00A0080F380
:101F80001188BFF36F8FBFF34F8F00BFFEE7206C48
:101F90000028DED04FF00A0080F31188BFF36F8F66
:101FA000BFF34F8FFEE7FFF7E7FBA06B022D5ED07C
:101FB000E16B88425BD304F1100801206F460DF1FC
:101FC000080900BF0299002900F08480C00702D0F0
:101FD0003846FFF78BFCFFF7F3FBFFF771FEFFF7C7
:101FE000CBFB94F84400FF2804BF002084F8440091
:101FF00094F84500FF2804BF002084F84500FFF74F
:10200000DFFB3846494600F005FB002865D1FFF7A5
:10201000B3FBD4F838A0D4F83CB0FFF7D1FBDA45D5
:1020200016D102994046FFF777FC2046FFF7ACFA3D
:1020300000F06AFE88B94EF60450CEF200004FF070
:1020400080510160BFF34F8FBFF36F8F05E000BF7A
:102050002046FFF799FA00F057FEFFF78DFBA06BC3
:10206000022D04D0E16B88424FF00000AAD2D4F8D0
:102070003880226CA76B22B3C5B3E0683146FEF707
:10208000CFF9E168206C2268091A9142E16003D21D
:10209000A16840420844E060A81EB0FA80F0400900
:1020A0003946002F18BF012108403F1A2BE04FF09E
:1020B0000A0080F31188BFF36F8FBFF34F8F00BF0B
:1020C000FEE720680026F8B9A06800F0E1FCA660F1
:1020D000064619E0FFF774FB04E02046FFF754FAC8
:1020E00000F012FE002003B0BDE8F08F60683146BA
:1020F000FEF796F9216CD4E9010208449042606031
:1021000001D3206860600026781CA063A06CA0B199
:10211000022D02D1B8F1000F2ED12046FFF740F872
:1021200050B34EF60450CEF200004FF080510160E3
:10213000BFF34F8FBFF36F8F1EE054F8240F78B1B9
:10214000204600F069FDB8B14EF60450CEF2000012
:102150004FF080510160BFF34F8FBFF36F8F0BE0E3
:1021600056B14EF60450CEF200004FF0805101609F
:10217000BFF34F8FBFF36F8FFFF722FB012003B038
:10218000BDE8F08F2DE9F04158B10546006C90B1E3
:102190004FF00A0080F31188BFF36F8FBFF34F8FAA
:1021A000FEE74FF00A0080F31188BFF36F8FBFF393
:1021B0004F8F00BFFEE728680C4658B3FFF740FB7F
:1021C000EFF311884FF00A0080F31188BFF36F8F8F
:1021D000BFF34F8FA86BE96B884216D295F9456023
:1021E0000130F7B2FF2FA86321D0FFF779FAB04290
:1021F0002FD97F2F32D14FF00A0080F31188BFF31F
:102200006F8FBFF34F8F00BFFEE7002088F3118868
:10221000BDE8F081A8680028D0D04FF00A0080F314
:102220001188BFF36F8FBFF34F8F00BFFEE7A86C1D
:10223000C8B12846FEF7B4FF0146002C4FF001005C
:1022400018BF00291CD00120206088F31188BDE848
:10225000F081012088F31188BDE8F081781C85F8B1
:10226000450001200CE055F8240F68B1284600F025
:10227000D3FC0146002C4FF0010018BF002908D103
:1022800088F31188BDE8F081012088F31188BDE84A
:10229000F0810120206088F31188BDE8F081000002
:1022A0002DE9F04F85B0049298B10C4605460029FF
:1022B00000F0B78000F0F4FAA8B9049898B14FF094
:1022C0000A0080F31188BFF36F8FBFF34F8F00BFF9
:1022D000FEE74FF00A0080F31188BFF36F8FBFF362
:1022E0004F8F00BFFEE705F11000019005F12400BB
:1022F00000900DF108090DF1100A4FF000080CE0F4
:102300002846FFF741F900F0FFFCFFF735FAAF6B05
:10231000FFF756FA002F00F09280FFF72DFAD5F85C
:1023200038B0BBF1000F27D02A6C5AB1D5E90210A2
:102330001044E860884224BF2868E860E9682046C5
:10234000FEF76EF8ABF10100A863286970B101983F
:1023500000F062FC50B14EF60450CEF200004FF097
:1023600080510160BFF34F8FBFF36F8FFFF728FAE3
:1023700000200126A0B963E0049850B1B8F1000F25
:1023800002D14846FFF7B2FA4FF00108012038B9F0
:1023900056E0FFF715FA00260020002850D000BFB5
:1023A000FFF70EFAFFF78CFCFFF7E6F995F844000B
:1023B000FF2804BF002085F8440095F84500FF2859
:1023C00004BF002085F84500FFF7FAF9484651465A
:1023D00000F020F900287FF493AFFFF7CDF9AF6B41
:1023E000FFF7EEF92FB12846FFF7CEF800F08CFC8E
:1023F00093E704990098FFF78FFA2846FFF7C4F88F
:1024000000F082FC00287FF488AF4EF60450CEF234
:1024100000004FF080510160BFF34F8FBFF36F8F0B
:102420007BE7286C00283FF445AF4FF00A0080F3AB
:102430001188BFF36F8FBFF34F8F00BFFEE70026F9
:10244000304605B0BDE8F08F2DE9F04F87B006911A
:1024500058B10446006C90B14FF00A0080F3118827
:10246000BFF36F8FBFF34F8FFEE74FF00A0080F38B
:102470001188BFF36F8FBFF34F8F00BFFEE700F0EF
:102480000FFA50B9069840B14FF00A0080F3118856
:10249000BFF36F8FBFF34F8FFEE704F1240001906D
:1024A00000200290002004F1100B00260DF110080E
:1024B00006AD03900DE000BF2046FFF765F800F081
:1024C00023FCFFF759F9A76BFFF77AF9002F00F00B
:1024D0008680FFF751F9A06B00B30138A063206834
:1024E00010B9FFF7CBF8A060DBF8000070B15846D8
:1024F00000F092FB50B14EF60450CEF200004FF0C7
:1025000080510160BFF34F8FBFF36F8FFFF758F912
:102510004FF0010A0020A8B977E000BF069848B143
:10252000039810B94046FFF7E1F90120039001201C
:1025300040B96AE0FFF744F900204FF0000A002894
:1025400063D000BFFFF73CF9FFF7BAFBFFF714F9C0
:1025500094F84400FF2808BF84F8446094F84500CC
:10256000FF2808BF84F84560FFF72AF9404629464E
:1025700000F050F800289FD1FFF7FEF8D4F838900B
:10258000FFF71EF9B9F1000F06D02046FEF7FCFF59
:1025900000F0BAFB00269CE72068002638B9FFF758
:1025A000EBF8A06800F0D8FA0290FFF709F9069955
:1025B0000198FFF7B1F92046FEF7E6FF00F0A4FB13
:1025C00000287FF486AF4EF60450CEF200004FF0A4
:1025D00080510160BFF34F8FBFF36F8F79E702988F
:1025E00040B1FFF7C9F8606A38B1206B0068C0F1EC
:1025F0000F0103E04FF0000A07E00021A068FFF799
:10260000E1F9FFF7DDF84FF0000A504607B0BDE8EA
:10261000F08F000070B5E8B10D4621B30446FFF716
:10262000ABF847F2A82EC2F2000EDEF800202968AF
:102630004B1C22D047F25C2CC2F2000CD4E9000300
:10264000DCF8006086421AD09A4218D30020286035
:10265000012424E04FF00A0080F31188BFF36F8F4C
:10266000BFF34F8FFEE74FF00A0080F31188BFF3EE
:102670006F8FBFF34F8F00BFFEE700240FE0D21A29
:10268000914209D9881A2860DCF800002060DEF841
:1026900000006060002402E0002001242860FFF7B1
:1026A0008FF8204670BD00002DE9F047814690006C
:1026B000984615460E46FEF7ABFF88B107465020F8
:1026C000FEF7A6FF48B150210446FDF7EEFE276352
:1026D0004CB94FF0FF30BDE8F0873846FFF788F877
:1026E0000024002CF5D0089F206B76B104F1340152
:1026F000002200BFB35C8B54B35C1BB1092A02F10A
:102700000102F7D1002184F83D100F2F09D34FF0BB
:102710000A0080F31188BFF36F8FBFF34F8F00BFA4
:10272000FEE700EB85000438251D20F00706DDF8E4
:1027300024A02846E7622764FEF7E4FF04F11800AE
:10274000FEF7E0FFC7F10F00A06130464946424660
:1027500024616462FEF79EFFBAF1000F206018BF8B
:10276000CAF80040FFF708F847F2E010C2F2000094
:10277000016840F2980A01310160C2F2000ADAF8F9
:10278000001047F27C2940F2AC07C2F20009C2F205
:10279000000761B1D9F80000002841D1DAF8000043
:1027A000E16AC06A884298BFCAF8004038E0CAF8B7
:1027B00000400068012833D1002600BFB819FEF799
:1027C00095FF1436B6F5967FF8D147F22028C2F26D
:1027D00000084046FEF78AFF47F23426C2F20006A0
:1027E0003046FEF783FF47F26820C2F20000FEF792
:1027F0007DFF47F29420C2F20000FEF777FF47F218
:102800008020C2F20000FEF771FF40F2A000C2F289
:102810000000C0F8008040F2A400C2F20000066090
:1028200047F2EC10C2F2000001680126013101609C
:1028300047F2F011E06AC2F200010A6806FA00F3FA
:102840001A4300EB80000A6007EB80014A6861616F
:102850009368A260E360936895605D6057F820100C
:10286000013147F82010FEF7ABFFD9F80000A0B106
:10287000DAF80000E16AC06A884224BF0120BDE89E
:10288000F0874EF60450CEF200004FF08051016008
:10289000BFF34F8F0126BFF36F8F3046BDE8F0873F
:1028A00047F27C20C2F200000068002804BF01202B
:1028B000704747F2E810C2F200000068B0FA80F0FA
:1028C000400940007047000047F2A820C2F2000013
:1028D000006870472DE9F04F47F2E810C2F200009F
:1028E000006848B147F26420C2F20000016801317B
:1028F00001600020BDE8F08F47F2A820C2F200007E
:10290000016811F1010EC0F800E02DD340F2A000E3
:10291000C2F20000026812684AB14FF00A0080F368
:102920001188BFF36F8FBFF34F8F00BFFEE740F2F8
:10293000A403C2F2000302681F6807601A6047F22E
:102940005C22C2F20002136801331360026812684D
:102950001AB10068C068006801E04FF0FF3047F22C
:102960005822C2F20002106047F25821C2F2000160
:10297000086840F2AC088645C2F2000801D2002087
:102980006EE040F2A00AC2F2000ADAF800004FF04E
:1029900000090068002858D047F2F01BC2F2000B73
:1029A000002025E0F96ADBF8002001238B401A4360
:1029B000CBF8002001EB810208EB82035E687B61AB
:1029C000B468BE60FC60B468B560656058F82230D9
:1029D000013348F8223040F29802C2F20002126835
:1029E000D26ADAF80030914288BF0120196881B3B9
:1029F000DAF80030DB68DF683D4655F8044FA6453D
:102A000029D3D7E902637C69B360D4F804C0FB68BA
:102A1000AC455E6008BF6360C7F814902368013B53
:102A20002360BC6A002CBDD0D7E907636268B3603D
:102A30003B6A07F118018A425E6008BF6360C7F80D
:102A40002890216801392160ACE74FF0FF34002065
:102A500005E04FF0FF3447F25821C2F200010C604C
:102A600040F29801C2F200010968C96A01EB8101D4
:102A700058F82110012947F2B421C2F2000188BFA1
:102A800001200968002918BF0120BDE8F08F00006F
:102A900070B580B1044640F29800C2F200000068B0
:102AA000A0420AD04FF00A0080F31188BFF36F8F65
:102AB000BFF34F8FFEE7002070BD606C002840D050
:102AC000411EE06A226C616490424FF0000037D0F2
:102AD000002918BF70BD261D3046FEF7EFFD47F2F6
:102AE000F01CC2F2000C48B9E06A0122DCF80030A8
:102AF00002FA00F023EA0000CCF80000226CC2F1D8
:102B00000F00E262A0610120DCF8003000FA02F15F
:102B10001943CCF8001040F2AC0C02EB8201C2F277
:102B2000000C0CEB81035A6863619568A260E56054
:102B3000956896606E605CF8212001324CF8212087
:102B400070BD4FF00A0080F31188BFF36F8FBFF3A1
:102B50004F8F00BFFEE70000F0B581B010B340F228
:102B60009806C2F200060446C06A3168C96A884203
:102B70001BD2A169002904D43168C96AC1F10F01CF
:102B8000A16140F2AC07616900EB8000C2F200076E
:102B900007EB8000814211D03068C06AE0620120FA
:102BA00001B0F0BD002001B0F0BD216C3068C26AF8
:102BB0000020914238BF012001B0F0BD251D2846FC
:102BC000FEF77CFD47F2F011C2F2000138B9E06A6D
:102BD00001220B6802FA00F023EA00000860306866
:102BE000C26A0120E2620B6800FA02F633430B600E
:102BF00002EB820107EB8102536862619E68A36069
:102C0000E6609E689D60756057F82120013247F8A4
:102C1000212001B0F0BD000010B5C068C06830B31D
:102C2000D0E90713826A8B60036AD2F804E000F1EE
:102C3000180C59600021E64508BF53608162116895
:102C40000139116047F2E811C2F200010968C1B10F
:102C500047F26822C2F20002516882628B68C16149
:102C600003628B68C1F808C0C3F804C037E04FF0B6
:102C70000A0080F31188BFF36F8FBFF34F8F00BF3F
:102C8000FEE7D0E9021342698B60D2F804E0C36822
:102C900000F1040CE645596008BF5360116847F223
:102CA000F01401391160C16AC2F200044FF0010E44
:102CB00022680EFA01F31A43226040F2AC0201EBE3
:102CC0008101C2F2000202EB8102516842618B680D
:102CD0008160C3608B68C1F808C0C3F804C0116884
:102CE0000131116040F29801C2F20001C06A096826
:102CF000C96A884291BF002047F2B421C2F20001A4
:102D0000012088BF086010BD2DE9F04F81B047F267
:102D1000E814C2F20004206868B1FEF72DFD2068B7
:102D200001382060206880B10024FEF749FD20466C
:102D300001B0BDE8F08F4FF00A0080F31188BFF3B7
:102D40006F8FBFF34F8F00BFFEE747F2E010C2F274
:102D50000000006800286DD047F2682AC2F2000A1D
:102D6000DAF8001047F2B4280029C2F200086AD04D
:102D700047F2F01B40F2AC0440F2980E4FF0000C0A
:102D80004FF00109C2F2000BC2F20004C2F2000EC1
:102D9000DAF80C10CE68D6E90721B76A9160786836
:102DA000316A06F11805A8424A6008BF7960C6F882
:102DB00028C0386801383860D6E90202716982603B
:102DC0004A68F568371DBA42686008BF4D600868F8
:102DD00001380860F06ADBF8001009FA00F21143CC
:102DE000CBF8001000EB800104EB810255687261A2
:102DF000AB68B560F360AB68AF605F6054F82120EA
:102E0000013244F82120DEF80010C96A884228BF48
:102E1000C8F80090DAF800000028B9D19EB140F25D
:102E2000A000C2F200000168096829B10068C0680A
:102E3000006803E0002478E74FF0FF3047F25821A4
:102E4000C2F20001086047F26424C2F2000425685F
:102E500055B10126FFF73EFD002818BFC8F80060F5
:102E6000013DF7D100202060D8F8000060B14EF697
:102E70000450CEF200004FF080510160BFF34F8F3D
:102E80000124BFF36F8F50E700244EE7F0B581B007
:102E9000A8B10446FEF7D4FCEFF311874FF00A0007
:102EA00080F31188BFF36F8FBFF34F8F606947F2D4
:102EB0008021C2F2000188420BD0002551E04FF082
:102EC0000A0080F31188BFF36F8FBFF34F8F00BFED
:102ED000FEE7A06A08B1002543E047F2E810C2F21D
:102EE0000000006848B147F2682004F11801C2F2FE
:102EF0000000FEF729FC002533E040F29801C2F201
:102F00000001E06A0968C96A884201D2002505E02B
:102F100047F2B420C2F2000001250560261D3046AC
:102F2000FEF7CCFB47F2F012E06AC2F20002012188
:102F30001368814040F2AC0C194300EB8000C2F2F0
:102F4000000C11600CEB8002536862619968A36009
:102F5000E16099689E604E605CF8201001314CF889
:102F6000201087F31188284601B0F0BD70B582B0FB
:102F7000FEF702FC47F2AC26C2F200063068E8B960
:102F800047F2F414C2F200042046FEF7AFFB47F20A
:102F90000825C2F200052846FEF7A8FB40F29C0077
:102FA000C2F20000046040F2A800C2F20000056016
:102FB00005200C210022FEF77DFF3060FEF700FCAB
:102FC000306888B1022047F2B026009041F24D30BF
:102FD000C2F20006C0F200000BA14FF4827200237F
:102FE0000196FFF761FB00E0002000281CBF02B043
:102FF00070BD4FF00A0080F31188BFF36F8FBFF3ED
:103000004F8F00BFFEE700BF546D72205376630000
:10301000F1EE100A4FF6FF71C0F2C03120EA010054
:1030200040F04070E1EE100A704700000E00000012
:10303000503000000000002008000000A80200003E
:103040005830000008000020B0740000C4020000E6
:0830500080F0FA02AAAAAAAA64
:040000050000030DE7
:00000001FF
